:100000000C9464000C948C000C948C000C948C0068
:100010000C948C000C948C000C948C000C948C0030
:100020000C948C000C948C000C948C000C948C0020
:100030000C948C000C948C000C948C000C948C0010
:100040000C9435070C948C000C9486090C948C004D
:100050000C948C000C948C000C948C000C948C00F0
:100060000C9479120C948C000000000024002700EE
:100070002A0000000000250028002B0000000000DE
:1000800023002600290004040404040404040202DA
:100090000202020203030303030301020408102007
:1000A0004080010204081020010204081020000012
:1000B0000007000201000003040600000000000029
:1000C0000000B302E30AAE0D11241FBECFEFD4E04F
:1000D000DEBFCDBF11E0A0E0B1E0ECE9FDE202C07F
:1000E00005900D92A83DB107D9F713E0A8EDB1E056
:1000F00001C01D92AB35B107E1F710E0C8ECD0E0CC
:1001000004C02297FE010E94C816C23CD107C9F75D
:100110000E941E070C94CC160C940000809184025F
:100120009091850208958091C0019091C101089538
:100130008091C2019091C30108958091C401909172
:10014000C50108958091C6019091C701089586E880
:1001500092E00895089508958091DD0108958091B9
:100160005802089580915902089580915A02089585
:1001700080915B02089580915C0290915D020895E8
:1001800080915E02089580915F02909160020895CF
:1001900080916102089580916202909163020895B6
:1001A000809164020895809165029091660208959D
:1001B00080916702089581E080936702089510920C
:1001C00067020895E0EEF1E0119282E0E835F80769
:1001D000D9F7109258021092590210925A021092B6
:1001E000DF011092DE011092DD0108958091DE01A1
:1001F0009091DF01892B19F4109258020895809193
:10020000E0018093580208958091DE019091DF0112
:1002100003972CF08091E201809359020895109287
:10022000590208958091DE019091DF0103972CF02F
:100230008091E20180935A02089510925A02089523
:100240008091DE019091DF0103972CF08091E20113
:1002500080935B02089510925B0208950895809147
:100260006A0290916B026AE070E00E946216CB0114
:10027000089580916A0290916B026AE070E00E949A
:1002800062160895EF92FF920F931F9320916202DE
:100290003091630284E690E0AC01249FC001259F69
:1002A000900D349F900D11246AE570E00E94621653
:1002B000882777FD8095982F60936E0270936F0268
:1002C000809370029093710224E630E040E050E0A9
:1002D000261B370B480B590B20937B0230937C0273
:1002E00040937D0250937E02E0906502F09066029A
:1002F0000027F7FC0095102FC801B701E7E0660F53
:10030000771F881F991FEA95D1F76E197F09800B17
:10031000910B0E9443161F910F91FF90EF9008954B
:10032000EF92FF920F931F9320916202309163022C
:1003300084E690E0AC01249FC001259F900D349F7E
:10034000900D11246AE570E00E9462169B0144271B
:1003500037FD4095542F20936E0230936F024093E7
:10036000700250937102E0906502F09066020027DF
:10037000F7FC0095102FC801B701F7E0660F771F53
:10038000881F991FFA95D1F76E197F09800B910B81
:100390000E9443161F910F91FF90EF900895809156
:1003A0006102833609F560916502709166028827C3
:1003B00077FD8095982F0E94301520E030E048ECC2
:1003C00052E40E94951420E030E04EEF52E40E9487
:1003D000E0150E94FD1460937F0270938002809369
:1003E0008102909382023FC08C3609F044C0809114
:1003F0006202909163028D9774F080916402863658
:1004000019F48091830202C08091B9018093BA01EE
:100410000E94900102C00E94420120E137E240E0C8
:1004200050E00E94971620937F0230938002409301
:100430008102509382026091650270916602882762
:1004400077FD8095982F0E94301520E030E048EC31
:1004500052E40E94951420E030E04EEF52E40E94F6
:10046000E0150E94FD1460937702709378028093E8
:10047000790290937A0280916102823709F072C00A
:1004800080916202909163028D97E4F18091640201
:10049000863619F48091830202C08091B90180935D
:1004A000B8016091650270916602882777FD80959A
:1004B000982F0E94301520E030E048EC52E40E9472
:1004C000951420E030E04EEF52E40E94E0150E94C7
:1004D000FD1460937F027093800280938102909359
:1004E00082020E94900120E137E240E050E00E9449
:1004F00097162093770230937802409379025093B5
:100500007A0208956091650270916602882777FDEE
:100510008095982F0E94301520E030E048EC52E49E
:100520000E94951420E030E04EEF52E40E94E01566
:100530000E94FD1460937F02709380028093810279
:10054000909382020E94420120E137E240E050E0B5
:100550000E94971620937702309378024093790295
:1005600050937A0208958091B6019091B7019595C4
:10057000879590936D0280936C0286E892E00E94CA
:10058000720E0895AB01BC018EE193E00E941C0C39
:100590000895AB01BC018EE193E00E94660C0895C2
:1005A000BC018EE193E00E94790C0895682F8EE1E2
:1005B00093E00E94590B0895BC018EE193E00E94E4
:1005C000690B089580E091E00E94DC020895AB0180
:1005D000BC018EE193E00E943F0C0895BC018EE1C6
:1005E00093E00E94710C0895BC018EE193E00E949B
:1005F0002A0B089586E091E00E94F40280915A024D
:100600000E94D6020895682F8EE193E00E94220B8B
:100610000895EF92FF920F931F939C017B010EE1CF
:1006200013E0C801B9010E942A0BC80165E271E01C
:100630000E942A0BC801609159020E94220BC80136
:100640006BE371E00E942A0BC801B7010E94790C8C
:100650001F910F91FF90EF9008958EE193E00E941B
:10066000C40A08958EE193E00E949C0A08958EE1E9
:1006700093E00E94880A20E030E0882311F021E016
:1006800030E0C90108950F931F938091DD01882305
:10069000E9F1E0EEF1E0119282E0E835F807D9F7F0
:1006A000109258021092590210925A021092DF01D1
:1006B0001092DE011092DD0129C00091DE0110913F
:1006C000DF018EE193E00E949C0A00521E4FF80168
:1006D00080832091DE013091DF01F901E052FE4F6D
:1006E00080818D3069F481E08093DD01232B19F442
:1006F0001092580211C08091E001809358020CC002
:100700002F5F3F4F3093DF012093DE018EE193E0B6
:100710000E94880A882389F61F910F9108950F93EC
:100720001F93062F27FF02C01BE702C01AEF121B00
:10073000442311F060E001C061E00E94EA08802FCC
:10074000612F70E00E9471081F910F9108956091D0
:10075000C6017091C7018091C4019091C50140917B
:10076000BA0120917F020E948F036091C2017091B3
:10077000C3018091C0019091C1014091B8012091C5
:1007800077020E948F03089580916702882309F4FD
:10079000F2C00E94A507209172023091730240912D
:1007A000740250917502621B730B840B950B2091A0
:1007B000BB013091BC014091BD015091BE01261793
:1007C00037074807590708F0D6C080915B0281338C
:1007D00009F0C7C080916A0290916B022CE08E3EB6
:1007E0009207DCF48C529140C4F08091B90180935F
:1007F000BA018093B80110927F0210928002109289
:100800008102109282021092770210927802109266
:10081000790210927A020E94A70380916A02909155
:100820006B022CE0843E92070CF58C589A40F4F051
:100830008091B9018093BA01809183028093B801BD
:1008400086E090E0A0E0B0E080937F029093800289
:10085000A0938102B09382028093770290937802F2
:10086000A0937902B0937A020E94A70380916A0252
:1008700090916B022AE08C3892070CF588509740D3
:10088000F4F08091B9018093BA0180918302809342
:10089000B80188E090E0A0E0B0E080937F02909300
:1008A0008002A0938102B09382028093770290939A
:1008B0007802A0937902B0937A020E94A7038091F4
:1008C0006A0290916B0227E0883092070CF58E58EF
:1008D0009340F4F0809183028093BA018091B90132
:1008E0008093B80188E090E0A0E0B0E080937F02C0
:1008F00090938002A0938102B0938202809377024A
:1009000090937802A0937902B0937A020E94A70391
:1009100080916A0290916B0223E08E3892070CF569
:1009200086539140F4F0809183028093BA018091C4
:10093000B9018093B80186E090E0A0E0B0E0809338
:100940007F0290938002A0938102B09382028093F1
:10095000770290937802A0937902B0937A020E9472
:10096000A7030E94A507609372027093730280939D
:10097000740290937502089580916402863619F48A
:100980008091B90102C0809183028093BA01809363
:10099000B8010E94CF010E94A703089580915B02D5
:1009A000803331F40E94BC0483E491E00E94DC02B5
:1009B00080915B02813339F481E08093670284E5A2
:1009C00091E00E94DC0208956091650270916602D8
:1009D00084E691E00E9409030E94BC04089560919E
:1009E0006202709163028DE691E00E9409030E9409
:1009F000BC040895CF93DF9360916C0270916D02F7
:100A00008EE393E00E944B0D8EE393E064E771E088
:100A10000E94FC0D8EE393E00E94070E6AE070E0F6
:100A200080E090E00E94DE0760916C0270916D02A0
:100A30008EE393E042E050E00E942C0EC8E6D2E044
:100A40008EE393E00E94550D882351F082E0CA3670
:100A5000D80731F08EE393E00E945B0D8993F0CFCD
:100A60009091680280E020916902820F911D90931D
:100A70006B0280936A02DF91CF9108959C0180916F
:100A8000DE019091DF012817390754F4C901805223
:100A90009E4F0E948E1190935D0280935C02089598
:100AA00010925D0210925C0208950E945308AA27DA
:100AB00097FDA095BA2FBC01CD010E94301560931F
:100AC000D8017093D9018093DA019093DB010895E6
:100AD000DF92EF92FF920F931F93D82E8091DC014B
:100AE000882319F48D2D0E9455056091D8017091CD
:100AF000D9018091DA019091DB0124EA30E74DE7DA
:100B00005FE30E94E0157B018C018D2D0E9453084C
:100B1000AA2797FDA095BA2FBC01CD010E943015E0
:100B20002AE037ED43E25CE30E94E0159B01AC0153
:100B3000C801B7010E942D146093D8017093D901A8
:100B40008093DA019093DB012BE137E64CE950E426
:100B50000E94E0159B01AC010E942D141F910F9182
:100B6000FF90EF90DF90089586E791E00E94F402F5
:100B700080918402909185020E9468050E94FD1474
:100B8000DC01CB010E94D002089588E891E00E9428
:100B9000DC020E94B40508950E94FC0E089580E0D6
:100BA00060E00E94CA0882E061E00E94CA0883E017
:100BB00061E00E94CA0884E061E00E94CA0885E002
:100BC00061E00E94CA088BE061E00E94CA0880E0F0
:100BD00061E00E94EA081092DC011092DD0183E6D8
:100BE00080935E028093610286E680936402109295
:100BF00067028EE193E040E05BE460E070E00E9419
:100C00001F0A86E892E06BE070E040E252E020E6E6
:100C100039E00E943E1008950E943E1008950E94FF
:100C2000EB0E08950E94E80E08950E94E30E0895C9
:100C30000E94E00E089560915F02709160028CE95D
:100C400091E00E94090380915E02833611F48AE5E7
:100C50000CC0853729F48AE590915F02891B05C095
:100C6000843629F480915F02865A809376028091BF
:100C700076028D3218F48DE28093760280917602AE
:100C8000883818F087E8809376020E94FC0E609105
:100C9000760286E892E070E00E94E00E089580916E
:100CA000DD01882309F4BDC080915802883619F40B
:100CB0000E94E2020895833719F40E94C505089541
:100CC000853649F58091DE019091DF0103972CF084
:100CD0008091E2018093590202C01092590284E08F
:100CE00090E00E943E058091590280935E028091BF
:100CF0005C0290915D029093600280935F028B355D
:100D0000910534F08AE590E09093600280935F0251
:100D10000E941B060895823749F58091DE0190916B
:100D2000DF0103972CF08091E2018093590202C009
:100D30001092590284E090E00E943E058091590291
:100D40008093610280915C0290915D0290936302B6
:100D5000809362028B35910534F08AE590E09093A0
:100D60006302809362020E94EF040895843749F57C
:100D70008091DE019091DF0103972CF08091E201D8
:100D80008093590202C01092590284E090E00E94C0
:100D90003E05809159028093640280915C0290919B
:100DA0005D0290936602809365028536910534F06A
:100DB00084E690E090936602809365020E94E404CA
:100DC0000895893681F48091DE019091DF010397C7
:100DD0002CF08091E20180935A0202C010925A02D4
:100DE0000E94FA0208958136B1F48091DE0190915B
:100DF000DF0103972CF08091E20180935B0202C037
:100E000010925B0280915B02803311F410926702B2
:100E10000E94CE0408958EE193E066EA71E00E949C
:100E2000690B08950E9443030E944F0608950E9493
:100E3000C4030E9412070E94FC0E08950E94160827
:100E40000E94CF050E941707FDCF0E947F0E0895D4
:100E50000F931F930E9416101F910F9108950E94E7
:100E60005E1008950E94F60F08951F920F920FB61C
:100E70000F9211242F938F939F93AF93BF938091E1
:100E80008E0290918F02A0919002B09191020196F2
:100E9000A11DB11D80938E0290938F02A0939002AA
:100EA000B09391028091920290919302A09194024A
:100EB000B09195028050904CAF4FBF4F80939202FB
:100EC00090939302A0939402B093950227C08091CF
:100ED000920290919302A0919402B0919502805851
:100EE0009E43A040B0408093920290939302A093BF
:100EF0009402B09395028091960290919702A091EE
:100F00009802B09199020196A11DB11D809396029D
:100F100090939702A0939802B093990280919202C5
:100F200090919302A0919402B091950281589E43B2
:100F3000A040B04060F6BF91AF919F918F912F91EB
:100F40000F900FBE0F901F9018958FB7F8942091B7
:100F500096023091970240919802509199028FBF6A
:100F6000B901CA0108956FB7F89486B590E0A0E082
:100F7000B0E0A89B08C00097A105B10521F480E06E
:100F800091E0A0E0B0E020918E0230918F0240917C
:100F90009002509191026FBF542F432F322F22277E
:100FA000280F391F4A1F5B1F82E0220F331F441F87
:100FB000551F8A95D1F7B901CA010895EF92FF92A2
:100FC0000F931F937B018C018FB7F8944091960289
:100FD0005091970260919802709199028FBF2FB73C
:100FE000F8948091960290919702A0919802B09106
:100FF00099022FBF841B950BA60BB70BE816F906B9
:101000000A071B0760F71F910F91FF90EF9008955B
:10101000019759F0FC01EE0FFF1FEE0FFF1F3297F3
:101020008FB7F8943197F1F78FBF0895789484B50E
:10103000826084BD84B5816084BD85B5826085BDD4
:1010400085B5816085BDEEE6F0E0808181608083BA
:10105000E1E8F0E08081826080838081816080832C
:10106000E0E8F0E0808181608083E1EBF0E0808166
:1010700084608083E0EBF0E0808181608083EAE738
:10108000F0E08081846080838081826080838081C1
:10109000816080838081806880831092C100089580
:1010A0008093C801089587709091C8019295990F17
:1010B000990F907C982B90937C0080917A008064AB
:1010C00080937A0080917A0086FDFCCF2091780091
:1010D00040917900942F80E030E0282B392BC90112
:1010E00008951F93CF93DF93182FEB0161E00E94C7
:1010F000CA08E12FF0E0E255FF4F8491833051F4AC
:1011000080918000806880938000D0938900C09394
:1011100088003CC0843051F48091800080628093CC
:101120008000D0938B00C0938A0030C0813039F4A6
:10113000209729F184B5806884BDC7BD27C082305F
:1011400039F42097E1F084B5806284BDC8BD1EC02B
:10115000863041F48091B00080688093B000C093E5
:10116000B30014C0873041F48091B0008062809356
:10117000B000C093B4000AC0C038D1051CF4812F60
:1011800060E002C0812F61E00E94EA08DF91CF9108
:101190001F910895282F30E0C90186569F4FFC010A
:1011A00094912A573F4FF9018491882391F0E82FB9
:1011B000F0E0EE0FFF1FE859FF4FA591B4916623B1
:1011C00029F48C91909589238C9308958C91892B87
:1011D0008C930895482F50E0CA0182559F4FFC011F
:1011E0002491CA0186569F4FFC0194914A575F4F44
:1011F000FA0134913323D1F1222331F1233021F448
:10120000809180008F7705C0243031F48091800078
:101210008F7D8093800018C0213019F484B58F77BA
:1012200004C0223021F484B58F7D84BD0DC02630EA
:1012300021F48091B0008F7705C0273029F4809188
:10124000B0008F7D8093B000E32FF0E0EE0FFF1F22
:10125000EE58FF4FA591B491662329F48C91909597
:1012600089238C9308958C91892B8C930895682FF2
:1012700070E0CB0182559F4FFC012491CB01865633
:101280009F4FFC0144916A577F4FFB019491992332
:1012900019F420E030E038C0222331F1233021F46A
:1012A000809180008F7705C0243031F480918000D8
:1012B0008F7D8093800018C0213019F484B58F771A
:1012C00004C0223021F484B58F7D84BD0DC026304A
:1012D00021F48091B0008F7705C0273029F48091E8
:1012E000B0008F7D8093B000892F90E0880F991F08
:1012F00084589F4FFC01A591B4918C9120E030E07F
:10130000842311F021E030E0C90108951F920F926B
:101310000FB60F9211242F933F934F935F936F93C8
:101320007F938F939F93AF93BF93EF93FF934091DE
:10133000C600E0911A03F0911B03CF01019660E80B
:1013400070E00E9462169C0180911C0390911D0325
:101350002817390739F0E656FD4F408330931B03B9
:1013600020931A03FF91EF91BF91AF919F918F91BD
:101370007F916F915F914F913F912F910F900FBE91
:101380000F901F9018958F92AF92CF92DF92EF92AD
:10139000FF920F931F93DF93CF93CDB7DEB7FC017E
:1013A0008DEC91E0918380837383628355834483C2
:1013B0003783268311870087F386E286D586C48625
:1013C000A68687868D85808B8E85818BCF91DF91D8
:1013D0001F910F91FF90EF90DF90CF90AF908F9083
:1013E00008958F92AF92CF92DF92EF92FF920F9378
:1013F0001F93DF93CF93CDB7DEB7FC018DEC91E067
:1014000091838083738362835583448337832683E8
:1014100011870087F386E286D586C486A6868786EE
:101420008D85808B8E85818BCF91DF911F910F9160
:10143000FF90EF90DF90CF90AF908F900895AF9294
:10144000BF92CF92DF92EF92FF920F931F93CF93B1
:10145000DF936C017A018B01DC011496AD90BC9096
:101460001597CB01BA0122E030E040E050E00E9445
:101470009716205C3D4B404F5F4FCA01B901A80150
:1014800097010E949716C901DA010197A109B109D4
:10149000292F3A2F4B2F552747FD5A950196A11D0D
:1014A000B11DE5012883E601EE81FF818150808333
:1014B000EA85FB85208141E050E0CA010E8402C02C
:1014C000880F991F0A94E2F7282B2083EA85FB8571
:1014D0002081CA010F8402C0880F991F0A94E2F785
:1014E000282B2083EA85FB858081088802C0440F71
:1014F000551F0A94E2F7842B8083DF91CF911F91CF
:101500000F91FF90EF90DF90CF90BF90AF90089534
:10151000DC011296ED91FC911397E058FF4F8191F9
:10152000919180589F4F20813181821B930B60E8FD
:1015300070E00E9462160895CF93DF93DC0112964B
:10154000ED91FC911397EF01CE57DF4F4881598100
:10155000E058FF4F80819181E058F0408417950753
:1015600019F42FEF3FEF0CC0E40FF51F2081CA01E3
:10157000019660E870E00E9462169983888330E0EB
:10158000C901DF91CF910895DC011296ED91FC9194
:101590001397EE57FF4F8081918192938293089524
:1015A000FC01A085B18521898C9190E0022E02C0BA
:1015B000959587950A94E2F780FFF6CF0484F58528
:1015C000E02D608308958DEC91E090931F0380934C
:1015D0001E038AE992E0909321038093200385EC17
:1015E00090E0909323038093220384EC90E0909307
:1015F00025038093240380EC90E09093270380934D
:10160000260381EC90E0909329038093280386ECD5
:1016100090E090932B0380932A0384E080932C0323
:1016200083E080932D0387E080932E0385E08093F1
:101630002F030895DC01ED91FC910190F081E02DE4
:1016400009950895DC01ED91FC910190F081E02D68
:10165000099508950F931F93CF93DF938C01EB01AE
:1016600009C02196D801ED91FC910190F081E02D07
:10167000C801099568816623A1F7DF91CF911F9179
:101680000F9108950F931F938C01DC01ED91FC9154
:101690000190F081E02D6DE00995D801ED91FC916C
:1016A0000190F081E02DC8016AE009951F910F912A
:1016B00008950F931F938C01DC01ED91FC91019033
:1016C000F081E02D0995C8010E94420B1F910F91F6
:1016D00008950F931F938C010E942A0BC8010E944A
:1016E000420B1F910F9108950F931F938C01DC0102
:1016F000ED91FC910190F081E02D0995C8010E94C7
:10170000420B1F910F9108952F923F924F925F923B
:101710006F927F928F929F92AF92BF92CF92DF9201
:10172000EF92FF920F931F93DF93CF93CDB7DEB766
:10173000A0970FB6F894DEBF0FBECDBF1C016A01A3
:101740007B01411551056105710549F4DC01ED91FD
:10175000FC910190F081E02D60E3099554C088244C
:1017600099245401422E55246624772401E010E088
:101770000C0F1D1F080D191DC701B601A301920111
:101780000E947516F80160830894811C911CA11CAD
:10179000B11CC701B601A30192010E947516C901CF
:1017A000DA016C017D01C114D104E104F104F1F608
:1017B00081E0E82EF12CEC0EFD1EE80CF91C3E0138
:1017C0000894611C711CD501C4010197A109B109DC
:1017D0006C01C818D90814C0F601EE0DFF1D608118
:1017E0006A3010F4605D01C0695CD101ED91FC913B
:1017F0000190F081E02DC10109950894E108F108FC
:101800006E147F0449F7A0960FB6F894DEBF0FBEA2
:10181000CDBFCF91DF911F910F91FF90EF90DF909F
:10182000CF90BF90AF909F908F907F906F905F9080
:101830004F903F902F9008952AE00E94840B0895C6
:101840000F931F938C010E941C0CC8010E94420B35
:101850001F910F910895AB0160E070E00E941C0C95
:1018600008950F931F938C01AB0160E070E00E941C
:101870001C0CC8010E94420B1F910F910895EF921A
:10188000FF920F931F93CF93DF93EC017A018B01AB
:1018900077FF0FC0E881F9810190F081E02D6DE2C2
:1018A000099510950095F094E094E11CF11C011D40
:1018B000111DCE01B801A7012AE00E94840BDF911F
:1018C000CF911F910F91FF90EF9008950F931F9369
:1018D0008C010E943F0CC8010E94420B1F910F9186
:1018E0000895AB01662757FD6095762F0E943F0C47
:1018F00008950F931F938C01AB01662757FD6095E8
:10190000762F0E943F0CC8010E94420B1F910F913D
:101910000895DC012115310541F4ED91FC91019010
:10192000F081E02D642F099508952A30310519F4CE
:101930000E943F0C08950E94840B08950F931F93FB
:101940008C010E94890CC8010E94420B1F910F91CB
:1019500008959F92AF92BF92CF92DF92EF92FF9243
:101960000F931F93CF93DF93EC017A018B01922E9B
:10197000CB01BA0120E030E040E050E00E94911439
:10198000882364F4E881F9810190F081E02DCE0193
:101990006DE2099517FB109517F9109520E030E0DE
:1019A00040E05FE3AA240BC0CA01B90120E030E0A7
:1019B00040E251E40E9495149B01AC01A394A91448
:1019C00098F3C801B7010E942D145B016C010E94BD
:1019D00002157B018C01CE01B801A7010E941C0CED
:1019E000992029F0CE016FEC71E00E942A0BC8010A
:1019F000B7010E942E159B01AC01C601B5010E94E2
:101A00002C1420C020E030E040E251E40E94E015B8
:101A10007B018C010E94FD145B016C01CC24B7FC9E
:101A2000C094DC2CCE01B601A5010E943F0CC6017A
:101A3000B5010E9430159B01AC01C801B7010E949D
:101A40002C149A949920F1F6DF91CF911F910F9168
:101A5000FF90EF90DF90CF90BF90AF909F90089550
:101A600022E00E94A90C08950F931F938C010E94FD
:101A7000300DC8010E94420B1F910F9108950895E7
:101A8000089581E080933903609334031092370303
:101A900010923803089581E08093390360933403F2
:101AA0001092370310923803089580913303909178
:101AB0003203891B08959091320380913303981764
:101AC00010F080E00895E0913003F0913103E90FC8
:101AD000F11D80819F5F9093320308959C01809156
:101AE0003C0390913D03892B11F190913203809139
:101AF00033039817E0F090E00BC0E0913003F091D1
:101B00003103EA0FFB1FA20FB31F8C9180839F5FED
:101B1000A92FB0E0A617B70784F3109232036093A1
:101B20003303E0913C03F0913D03CB010995089507
:101B3000E0913A03F0913B03309729F0109237037C
:101B4000109238030995089570933D0360933C0308
:101B5000089570933B0360933A0308950895DF93CB
:101B6000CF930F92CDB7DEB7698380913903882375
:101B7000A9F0809138038032B0F480913703E0916E
:101B80003503F0913603E80FF11D60838091370330
:101B90008F5F809337038093380305C0CE01019691
:101BA00061E00E943A120F90CF91DF9108950E9458
:101BB000AF0D0895EF92FF920F931F93CF93DF9392
:101BC0007C01042F80913903882359F0EB0110E048
:101BD00005C0C70169910E94AF0D1F5F1017C8F3C0
:101BE00004C0CB01642F0E943A12DF91CF911F9164
:101BF0000F91FF90EF900895DB010D900020E9F721
:101C00001197A61BB70B4A2F0E94DA0D0895609119
:101C1000350370913603809134034091380321E0FD
:101C20000E94F51110923703109238031092390375
:101C300008951F93862F142F413208F010E260910F
:101C4000300370913103412F0E94BF111092320373
:101C5000109333031F9108950E94190E089580E296
:101C600090E061E070E00E947010809330039093E8
:101C70003103109232031092330380E290E061E06E
:101C800070E00E9470108093350390933603109299
:101C90003703109238030E94FB1308950F931F938C
:101CA0008C01862F0E94BB1188E99DE00E945C1286
:101CB0008EE69DE00E945712C8010E942F0E1F91D0
:101CC0000F9108950E944E0E0895FC0110828FEF2F
:101CD00081831382128282E2848386E9858317825C
:101CE00016820895FC0110828FEF81831382128285
:101CF00082E2848386E98583178216820895AC0187
:101D0000E0913F03F0914003AFE3B3E00FC02681C1
:101D10003781E417F50731F42C9311963C93178221
:101D200016820895DF011696C901FC01309779F7F4
:101D30000895EF92FF920F931F93CF93DF93EC01DF
:101D40009B0177FF03C020E030E005C0653B7105D3
:101D500014F024EB30E02983EC806D8170E06E1983
:101D60007109882777FD8095982F982F872F762FD8
:101D7000662730E040E050E00E94431624EB30E05C
:101D800040E050E00E949716FF2400E010E0102F82
:101D90000F2DFE2CEE24E20EF31E041F151FC801AA
:101DA000B70120E430E040E050E00E9497163B830A
:101DB0002A83DF91CF911F910F91FF90EF900895AB
:101DC0000E94990E0895665A7F4F0E94990E0895B9
:101DD000FC0181810895E0913F03F091400308C028
:101DE000E817F90711F481E008950680F781E02DE6
:101DF0003097B1F780E008955F926F927F928F9253
:101E00009F92AF92BF92CF92DF92EF92FF920F9389
:101E10001F93DF93CF93CDB7DEB76DB67EB6ADB669
:101E20005EB60E94A5072091410330914203409184
:101E3000430350914403621773078407950750F0DA
:101E40002C5E3F4F4F4F5F4F621773078407950714
:101E500008F4AFC06093410370934203809343033F
:101E600090934403E0913F03F0914003BB2408C0EA
:101E700082819381892B09F0B3940680F781E02D4C
:101E80003097B1F7BB2009F494C08B2D90E0880FF8
:101E9000991F2DB73EB7281B390B0FB6F8943EBFDC
:101EA0000FBE2DBFCDB6DEB60894C11CD11CA091CB
:101EB0003F03B091400320E013C012968D919C9196
:101EC0001397892B49F0E22FF0E0EE0FFF1FEC0D86
:101ED000FD1DB183A0832F5F16960D90BC91A02DA0
:101EE000109759F72CC0812F90E07C01EE0CFF1C5D
:101EF000EC0CFD1CD7016D917C91FC013197EE0F2C
:101F0000FF1FEC0DFD1D40815181DB0112962D91CB
:101F10003C911397DA0112968D919C911397281793
:101F2000390730F4D7014D935C937183608301E0EE
:101F30001F5F1B15C0F2002311F410E011C011E067
:101F400000E0F7CFE12FF0E0EE0FFF1FEC0DFD1DDD
:101F50000190F081E02D808161E00E94EA081F5F1E
:101F60001B1580F3F6B4EE2400E010E08F2C9924CA
:101F70001EC0EE2DF0E0EE0FFF1FEC0DFD1D0190D9
:101F8000F081E02D22813381280D391D86B58F1512
:101F900010F400501F4FF82EC8018F0D911D281707
:101FA0003907A0F7808160E00E94EA08E394EB140F
:101FB00000F38A2D952D9C010FB6F8943EBF0FBEFD
:101FC0002DBF0FB6F8947EBE0FBE6DBECF91DF91D0
:101FD0001F910F91FF90EF90DF90CF90BF90AF9047
:101FE0009F908F907F906F905F9008950F931F93B5
:101FF0008C01FC0160838FEF8183138212828091B8
:102000003F0390914003978386831093400300938E
:102010003F03808160E00E94EA08F801808161E06E
:102020000E94CA0881E01F910F910895AF92BF925C
:10203000CF92DF92EF92FF920F931F936C015A01A0
:1020400079010E94F60F94E0F694E7949A95E1F7EF
:10205000F601E48284E0169507958A95E1F70583F9
:10206000C601B5010E94990E81E01F910F91FF906A
:10207000EF90DF90CF90BF90AF900895CF92DF9216
:10208000EF92FF920F931F936C018A0179010E94D6
:10209000F60F34E0169507953A95E1F7F6010483BB
:1020A00024E0F694E7942A95E1F7E58281E01F9118
:1020B0000F91FF90EF90DF90CF900895EF92FF92F5
:1020C0000F931F938C017A010E94F60FC801B7018C
:1020D0000E94990E81E01F910F91FF90EF9008955B
:1020E0000F931F93CF93DF93689F8001699F100D1B
:1020F000789F100D1124C8010E948C10EC010097EC
:1021000029F060E070E0A8010E94AC11CE01DF91DF
:10211000CF911F910F910895CF93DF93BC0182302F
:10212000910510F462E070E0A0915903B0915A0358
:10213000ED01E0E0F0E040E050E021C088819981CD
:102140008617970769F48A819B81309719F09383EA
:10215000828304C090935A0380935903FE0134C0D4
:102160006817790738F44115510519F08417950758
:1021700008F4AC01FE018A819B819C01E901209752
:10218000E9F641155105A9F1CA01861B970B049781
:1021900008F4BA01E0E0F0E02AC08D919C9111971B
:1021A00084179507F9F46417750781F412968D91D9
:1021B0009C911397309719F09383828304C0909376
:1021C0005A0380935903FD0132964CC0CA01861B05
:1021D000970BFD01E80FF91F6193719302978D939F
:1021E0009C9340C0FD01828193819C01D90110978D
:1021F000A1F68091570390915803892B41F4809167
:10220000D3019091D4019093580380935703409148
:10221000D5015091D6014115510541F44DB75EB736
:102220008091D1019091D201481B590B2091570305
:1022300030915803CA01821B930B8617970780F0D1
:10224000AB014E5F5F4F8417950750F0420F531F4D
:102250005093580340935703F9016193719302C05F
:10226000E0E0F0E0CF01DF91CF910895CF93DF93CD
:10227000009709F450C0EC0122971B821A82A091AA
:102280005903B0915A03109709F140E050E0AC17A0
:10229000BD0708F1BB83AA83FE0121913191E20FB2
:1022A000F31FAE17BF0779F48D919C911197280FFA
:1022B000391F2E5F3F4F3983288312968D919C9151
:1022C00013979B838A834115510571F4D0935A0368
:1022D000C093590320C012968D919C911397AD0124
:1022E000009711F0DC01D3CFFA01D383C28321918F
:1022F0003191E20FF31FCE17DF0769F488819981CE
:10230000280F391F2E5F3F4FFA01318320838A81C6
:102310009B8193838283DF91CF910895FC0188276D
:102320009927E89421912032E9F3293010F02E30DA
:10233000C8F32B3241F02D3239F4689404C00E9466
:10234000B311820F911D219120532A30C0F31EF446
:10235000909581959F4F0895DC0101C06D93415088
:102360005040E0F708957AE0979F902D879F802D49
:10237000910D11240895880F8093BA000895982F25
:10238000413210F040E02FC0809145038823E1F7EF
:1023900081E0809345038FEF8093560310924D03A5
:1023A00040934E03990F91609093460385EE80937E
:1023B000BC00809145038130E1F380914D03841787
:1023C00010F440914D03A0914B03B0914C0320E0D9
:1023D00030E007C0FB01E20FF31F8D9180832F5F78
:1023E0003F4F2417B8F3842F08951F93582F122FAF
:1023F000413210F081E03CC0809145038823E1F731
:1024000082E0809345038FEF8093560310924D0333
:1024100040934E03A0914B03B0914C03FB0102C0CB
:1024200081918D938E2F861B8417D0F3852F90E09A
:10243000880F991F8093460385EE8093BC0011237B
:1024400021F0809145038230E1F3809156038F3F64
:1024500011F480E00DC080915603803211F482E0C7
:1024600007C080915603803311F084E001C083E0FF
:102470001F910895482F613210F081E008958091F6
:102480004503843011F082E0089560935203A091D7
:102490004F03B0915003842F9C01F90102C0819138
:1024A0008D938E2F841B8617D0F380E00895909330
:1024B0004A03809349030895909348038093470308
:1024C0000895882311F085EC01C085E88093BC0055
:1024D000089585ED8093BC008091BC0084FDFCCF05
:1024E00010924503089585EC8093BC00109245033B
:1024F00008951F920F920FB60F9211242F933F93BE
:102500004F935F936F937F938F939F93AF93BF93FB
:10251000EF93FF938091B90090E0887F90708036B0
:10252000910509F4E2C081369105CCF58832910518
:1025300009F47BC089329105B4F48031910509F426
:102540006FC0813191053CF4009709F438C10897B8
:1025500009F040C165C08831910509F466C08097D3
:1025600009F038C17FC08034910509F4A3C08134DB
:10257000910544F48033910509F47FC0C89709F0B0
:1025800029C186C08035910509F486C0883591053A
:1025900009F495C08834910509F01CC19EC08839A2
:1025A000910509F404C189399105ECF48837910546
:1025B00009F49BC0893791054CF48836910509F4DC
:1025C00094C08037910509F005C18FC08838910506
:1025D00009F4EDC08039910509F48DC0803891056A
:1025E00009F0F8C088C0803B910509F4B2C0813B76
:1025F00091054CF4803A910509F491C0883A91050F
:1026000009F0E8C0A6C0803C910509F4D4C0883C1C
:10261000910509F4D0C0883B910509F0DBC0B1C039
:10262000809146038093BB00C0C090914D03809180
:102630004E03981778F490914D03E0914B03F0917D
:102640004C03E90FF11D80818093BB009F5F909345
:102650004D03ABC085ED8093BC008091BC0084FD30
:10266000FCCFB6C080E28093560385ED8093BC001A
:102670008091BC0084FDFCCFABC080E38093560307
:1026800085ED8093BC008091BC0084FDFCCFA0C090
:1026900088E3809356038FC080914D039091BB00D7
:1026A000E0914B03F0914C03E80FF11D90838F5F95
:1026B00080934D0390914D0380914E0374C080919F
:1026C0004D039091BB00E0914B03F0914C03E80F58
:1026D000F11D90838F5F80934D0385ED8093BC0047
:1026E0008091BC0084FDFCCF73C083E080934503E0
:1026F000109255035AC080915503803208F057C09C
:10270000809155039091BB00E0915303F0915403E5
:10271000E80FF11D90838F5F8093550346C0809131
:102720005503803248F480915503E0915303F091B2
:102730005403E80FF11D108260915503E0914903A5
:10274000F0914A03809153039091540370E00995EE
:1027500032C084E0809345031092510310925203DB
:10276000E0914703F0914803099580915203882333
:1027700041F481E080935203E0914F03F0915003C4
:10278000108290915103E0914F03F0915003E90FB3
:10279000F11D80818093BB009F5F909351039091C6
:1027A000510380915203981710F485EC01C085E81D
:1027B0008093BC000FC085EC8093BC0009C01092D0
:1027C000560385ED8093BC008091BC0084FDFCCF56
:1027D00010924503FF91EF91BF91AF919F918F911F
:1027E0007F916F915F914F913F912F910F900FBE0D
:1027F0000F901F90189510924503449A459AE9EB63
:10280000F0E080818E7F808380818D7F808388E46B
:102810008093B80085E48093BC0080E290E061E0A2
:1028200070E00E94701080934B0390934C0380E201
:1028300090E061E070E00E94701080934F039093ED
:10284000500380E290E061E070E00E94701080939D
:1028500053039093540308955058BB27AA270ED0D2
:1028600075C166D130F06BD120F031F49F3F11F487
:102870001EF45BC10EF4E095E7FB51C1E92F77D15F
:1028800080F3BA17620773078407950718F071F48D
:102890009EF58FC10EF4E0950B2EBA2FA02D0B01E3
:1028A000B90190010C01CA01A0011124FF27591B95
:1028B00099F0593F50F4503E68F11A16F040A22F9B
:1028C000232F342F4427585FF3CF4695379527950C
:1028D000A795F0405395C9F77EF41F16BA0B620B0B
:1028E000730B840BBAF09150A1F0FF0FBB1F661F52
:1028F000771F881FC2F70EC0BA0F621F731F841F95
:1029000048F4879577956795B795F7959E3F08F0BA
:10291000B3CF9395880F08F09927EE0F9795879579
:102920000895D9D008F481E008950CD00FC107D1E3
:1029300040F0FED030F021F45F3F19F0F0C05111AB
:1029400039C1F3C014D198F39923C9F35523B1F3D6
:10295000951B550BBB27AA2762177307840738F00E
:102960009F5F5F4F220F331F441FAA1FA9F333D06D
:102970000E2E3AF0E0E830D091505040E695001C21
:10298000CAF729D0FE2F27D0660F771F881FBB1FDD
:10299000261737074807AB07B0E809F0BB0B802DB7
:1029A000BF01FF2793585F4F2AF09E3F510568F003
:1029B000B6C000C15F3FECF3983EDCF38695779597
:1029C0006795B795F7959F5FC9F7880F911D969505
:1029D000879597F90895E1E0660F771F881FBB1F61
:1029E000621773078407BA0720F0621B730B840B0E
:1029F000BA0BEE1F88F7E095089504D06894B111E2
:102A0000D9C00895BCD088F09F5790F0B92F99276E
:102A1000B751A0F0D1F0660F771F881F991F1AF0E9
:102A2000BA95C9F712C0B13081F0C3D0B1E00895B2
:102A3000C0C0672F782F8827B85F39F0B93FCCF333
:102A4000869577956795B395D9F73EF490958095DF
:102A5000709561957F4F8F4F9F4F0895E89409C0FF
:102A600097FB3EF490958095709561957F4F8F4FC1
:102A70009F4F9923A9F0F92F96E9BB279395F695D7
:102A8000879577956795B795F111F8CFFAF4BB0F55
:102A900011F460FF1BC06F5F7F4F8F4F9F4F16C0B9
:102AA000882311F096E911C0772321F09EE8872F43
:102AB000762F05C0662371F096E8862F70E060E0FF
:102AC0002AF09A95660F771F881FDAF7880F969578
:102AD000879597F90895990F0008550FAA0BE0E81C
:102AE000FEEF16161706E807F907C0F012161306D0
:102AF000E407F50798F0621B730B840B950B39F410
:102B00000A2661F0232B242B252B21F408950A2675
:102B100009F4A140A6958FEF811D811D089597F9B5
:102B20009F6780E870E060E008959FEF80EC089573
:102B300000240A941616170618060906089500249C
:102B40000A9412161306140605060895092E039416
:102B5000000C11F4882352F0BB0F40F4BF2B11F48A
:102B600060FF04C06F5F7F4F8F4F9F4F089557FDE9
:102B70009058440F551F59F05F3F71F04795880FEB
:102B800097FB991F61F09F3F79F087950895121682
:102B900013061406551FF2CF4695F1DF08C016162E
:102BA00017061806991FF1CF8695710561050894DF
:102BB0000895E894BB2766277727CB0197F90895F6
:102BC0000BD0C4CFB5DF28F0BADF18F0952309F099
:102BD000A6CFABCF1124EECFCADFA0F3959FD1F3E0
:102BE000950F50E0551F629FF001729FBB27F00DBB
:102BF000B11D639FAA27F00DB11DAA1F649F662710
:102C0000B00DA11D661F829F2227B00DA11D621F5E
:102C1000739FB00DA11D621F839FA00D611D221F18
:102C2000749F3327A00D611D231F849F600D211DFC
:102C3000822F762F6A2F11249F5750408AF0E1F09F
:102C400088234AF0EE0FFF1FBB1F661F771F881FE8
:102C500091505040A9F79E3F510570F060CFAACF28
:102C60005F3FECF3983EDCF3869577956795B795D3
:102C7000F795E7959F5FC1F7FE2B880F911D9695FD
:102C8000879597F90895629FD001739FF001829F05
:102C9000E00DF11D649FE00DF11D929FF00D839FEB
:102CA000F00D749FF00D659FF00D9927729FB00D88
:102CB000E11DF91F639FB00DE11DF91FBD01CF019B
:102CC0001124089597FB092E07260AD077FD04D01A
:102CD00049D006D000201AF4709561957F4F089571
:102CE000F6F7909581959F4F0895A1E21A2EAA1BA1
:102CF000BB1BFD010DC0AA1FBB1FEE1FFF1FA217AC
:102D0000B307E407F50720F0A21BB30BE40BF50BA8
:102D1000661F771F881F991F1A9469F76095709531
:102D2000809590959B01AC01BD01CF01089597FB63
:102D3000092E05260ED057FD04D0D7DF0AD0001C7F
:102D400038F450954095309521953F4F4F4F5F4F48
:102D50000895F6F790958095709561957F4F8F4F08
:102D60009F4F0895AA1BBB1B51E107C0AA1FBB1FA1
:102D7000A617B70710F0A61BB70B881F991F5A9507
:102D8000A9F780959095BC01CD010895EE0FFF1F26
:0C2D90000590F491E02D0994F894FFCF19
:102D9C00526F67657200496E737472756D656E74EF
:102DAC007320636F6D6D616E64202D20726571757B
:102DBC006573743A0020636F6D6D616E64202D2015
:102DCC00646972656374696F6E3A002076616C7524
:102DDC00653A004175746F70696C6F74204973208B
:102DEC004F6666004175746F70696C6F742049731F
:102DFC00204F6E005468726F74746C650052756469
:102E0C006465720041004261747465727920766F5A
:102E1C006C746167653A20005374617475733A2061
:102E2C006F7065726174696F6E616C00456C65766C
:102E3C0061746F727300496E76616C696420636FA4
:102E4C006D6D616E64004200010101F4010000012E
:102E5C0002000300040005000100000000D00A2E4F
:082E6C000020005B03000000E0
:00000001FF
